:020000040800F2
:1000000078150020390400086D1200086F120008EE
:1000100073120008771200087B120008000000002D
:100020000000000000000000000000007F12000837
:10003000811200080000000083120008510400082B
:100040005304000853040008530400085304000834
:100050005304000853040008530400085304000824
:100060005304000853040008530400085304000814
:100070005304000853040008530400085304000804
:1000800053040008530400085304000853040008F4
:1000900053040008530400085304000853040008E4
:1000A00053040008530400085304000853040008D4
:1000B00053040008530400085304000853040008C4
:1000C00053040008530400085304000853040008B4
:1000D00053040008A513000853040008D7130008B0
:1000E0005304000853040008530400085304000894
:1000F0005304000853040008530400085304000884
:100100005304000853040008530400085304000873
:10011000091400083B1400085304000853040008A5
:100120005304000853040008530400085304000853
:100130005304000853040008530400085304000843
:100140005304000853040008530400085304000833
:100150005304000853040008530400085304000823
:100160005304000853040008530400085304000813
:100170005304000853040008530400085304000803
:10018000530400085304000800F002F800F03CF8A3
:100190000AA090E8000C82448344AAF10107DA45E2
:1001A00001D100F031F8AFF2090EBAE80F0013F0F8
:1001B000010F18BFFB1A43F001031847981C0000F9
:1001C000B81C0000103A24BF78C878C1FAD852078A
:1001D00024BF30C830C144BF04680C6070470000C1
:1001E0000023002400250026103A28BF78C1FBD840
:1001F000520728BF30C148BF0B6070471FB501F0E0
:1002000024FD1FBD10B510BD01F0E5FC1146FFF740
:10021000F5FF00F0A1FF01F003FD03B4FFF7F2FFCB
:1002200003BC01F00BFD00000CB500200190009014
:100230007648006840F480307449086000BF734815
:10024000006800F4003000900198401C0190009874
:1002500018B90198B0F5A06FF1D16C48006800F4AE
:10026000003010B10120009001E0002000900098C3
:10027000012846D165484030006840F0805063490D
:10028000403108606248006840F48040604908607E
:100290005E48083000685D4908310860084600681B
:1002A00040F4004008600846006840F4A050086030
:1002B0005848091F0860081F006840F08070091F37
:1002C000086000BF5148006800F000700028F9D0B5
:1002D00040F20560504908604C480830006820F042
:1002E00003004A49083108600846006840F00200EF
:1002F000086000BF45480830006800F00C0008287E
:10030000F8D10CBD10B54548006840F47000434971
:1003100008603E48006840F001003C490860002049
:100320003A4908310860394800683D490840374972
:1003300008603C48091D0860081F006820F4802000
:10034000091F0860002031490C310860FFF76CFF7D
:100350004FF0006031498039086010BD70B5002051
:100360000022022300240221284D08352D6805F0C3
:100370000C0020B1042806D0082834D107E02A4D0B
:100380002A4E356033E02A4D284E35602FE01F4D50
:100390002D1D2D68C5F380541C4D2D1D2D6805F0B5
:1003A0003F0154B1224DB5FBF1F5184E361D3668AC
:1003B000C6F3881605FB06F209E01B4DB5FBF1F507
:1003C000124E361D3668C6F3881605FB06F20F4D31
:1003D0002D1D2D68C5F301456D1C6B00B2FBF3F5B7
:1003E000124E356003E0104D104E356000BF00BF67
:1003F000064D08352D68C5F303150E4E705D0B4D87
:100400002D68C540094E356070BD000000380240BF
:1004100000700040042A4004003C024088ED00E0E7
:10042000FFFFF6FE103000240024F400000000203E
:1004300000127A000400002009488047094800475C
:10044000FEE7FEE7FEE7FEE7FEE7FEE7FEE7FEE784
:10045000FEE7FEE704480549054A064B70470000E1
:100460000503000889010008780F00207815002096
:10047000781100207811002032490143324A11607E
:10048000704770B5002100230F22C4781CB32E4C96
:10049000246804F4E064C4F5E064C4F30721C1F106
:1004A0000404E3B20A4144789C40E1B284781440E9
:1004B00021430C07210E254C05786155047804F082
:1004C0001F050124AC4005786D11AD0005F1E02554
:1004D000C5F8004109E0047804F01F050124AC4090
:1004E0001B4D0678761145F8264070BD194A0A4022
:1004F0000243154B1B1F1A60704739B1124A121D77
:1005000012680243104B1B1D1A6006E00E4A121DB2
:10051000126882430C4B1B1D1A607047042808D1D7
:100520004FF0E021096941F004014FF0E022116130
:1005300007E04FF0E021096921F004014FF0E022CB
:10054000116170470000FA050CED00E000E400E0E6
:1005500080E100E080FFFF1F10B504468C48844214
:1005600008D10121084600F000FB0021012000F025
:10057000FCFA5EE08748844208D10121022000F0A5
:10058000F4FA0021022000F0F0FA52E0824884429E
:1005900008D10121042000F0E8FA0021042000F035
:1005A000E4FA46E07D48844208D10121082000F0A9
:1005B000DCFA0021082000F0D8FA3AE078488442BA
:1005C00008D10121102000F0D0FA0021102000F005
:1005D000CCFA2EE07348844208D10121202000F09B
:1005E000C4FA0021202000F0C0FA22E06E488442C4
:1005F00008D10121402000F0B8FA0021402000F08D
:10060000B4FA16E06948844208D10121802000F044
:10061000ACFA0021802000F0A8FA0AE06448844285
:1006200007D10121801500F0A0FA0021A01500F0EB
:100630009CFA10BDF0B50A4600210023002400BF3B
:100640003DE0012505FA01F3156805EA03049C4223
:1006500034D105684F000326BE40B54305601579C7
:100660004E00B5400668354305601579012D02D06E
:100670001579022D16D185684F000326BE40B5437B
:10068000856055794E00B54086683543856045687C
:1006900001268E40B5434560456896798E40B6B2D6
:1006A00035434560C5684F000326BE40B543C5606D
:1006B000D5794E00B540C6683543C560491C102940
:1006C000BFD3F0BD4FF6FF71016000210171417190
:1006D0008171C171704708B54FF480320092009A61
:1006E0000A430092009AC261C161009AC261C26964
:1006F0000092C269009208BD0246002013690B40B7
:100700000BB1012000E0002070470146086980B26B
:1007100070470246002053690B400BB1012000E0F6
:10072000002070470146486980B2704701837047D6
:10073000418370470AB1018300E041837047416102
:10074000704742694A4042617047F0B50023002477
:100750004D07ED0E02FA05F3CE1000F1200555F815
:1007600026504E07F70E0F26BE40B543CF1000F1BE
:10077000200646F82750CE1000F1200555F82650E7
:1007800045EA0304CE1000F1200545F82640F0BDEF
:10079000000002400004024000080240000C024039
:1007A000001002400014024000180240001C0240E9
:1007B00000200240FA48006840F00100F849086053
:1007C0000020F74908310860F5480068F5490840FD
:1007D000F3490860F448091D0860081F006820F408
:1007E0008020091F08600020ED490C310860704727
:1007F0000021EB4A921C117011460870704710B529
:1008000001460022002300204A11012A02D1E44CB3
:10081000236808E0022A03D1E14C7034236802E027
:10082000DF4C7434236801F01F02012494401C4003
:100830000CB1012000E0002010BD38B50020009070
:100840000024002500BF3120FFF7D9FF054600989E
:10085000401C00900098B0F5A06F01D0002DF2D0A0
:100860003120FFF7CCFF08B1012400E0002420462E
:1008700038BD01460020CA4A106820F0F80040EA5E
:10088000C10010607047C949086070470021C44A20
:10089000703211701170012802D004280AD104E0CE
:1008A0000121BF4A7032117005E00521BC4A703247
:1008B000117000E000BF00BF7047BD49086070477D
:1008C00070B5049C41EA82150126C6EB530645EA41
:1008D0000645054345EA0465B14E361D356070BDD9
:1008E000B24908667047820142EA0172AC4B843318
:1008F0001A607047AD4988667047AC49C864704754
:1009000002460020A64B0833186820F0EC6042EA4B
:1009100001031843A24B08331860704702460020B9
:100920009F4B0833186820F0784042EA01031843CF
:100930009B4B08331860704701460020984A0832E4
:10094000106820F003000843106070479448083096
:10095000006800F00C00704701460020904A083201
:10096000106820F0F0000843106070470146002036
:100970008B4A0832106820F4E0500843106070473A
:1009800001460020864A0832106820F4604040EAA0
:10099000C10010607047F0B500210022002402253C
:1009A000002602237E4F08373F6807F00C0121B173
:1009B000042905D0082937D105E07E4F076036E0CD
:1009C0007D4F076033E0764F3F1D3F68C7F3805689
:1009D000734F3F1D3F6807F03F036EB1764FB7FB83
:1009E000F3F7DFF8BCC10CF1040CDCF800C0CCF369
:1009F000881C07FB0CF40CE06E4FB7FBF3F7DFF835
:100A0000A0C10CF1040CDCF800C0CCF3881C07FB7F
:100A10000CF4634F3F1D3F68C7F301477F1C7D0007
:100A2000B4FBF5F7076002E0624F076000BF00BF4C
:100A30005B4F08373F6807F0F00109095F4F7A5CA8
:100A40000768D7404760564F08373F6807F4E051C2
:100A5000890A5A4F7A5C4768D7408760504F0837F9
:100A60003F6807F46041490B544F7A5C4768D740B0
:100A7000C760F0BD002100F44072B2F5407F0AD19A
:100A8000474A0832116821F4F8114D4A02401143D7
:100A9000434A08321160424A70321268C0F30B03B5
:100AA0001A433F4B70331A6070474149443908601C
:100AB00070473F49403908607047424908607047B5
:100AC00039B1374A303212680243354B30331A603D
:100AD00006E0334A303212688243314B30331A60B9
:100AE000704739B12E4A3432126802432C4B3433EA
:100AF0001A6006E02A4A343212688243284B3433A3
:100B00001A60704739B1264A383212680243244BC2
:100B100038331A6006E0224A383212688243204B8A
:100B200038331A60704739B11D4A403212680243A7
:100B30001B4B40331A6006E0194A40321268824368
:100B4000174B40331A60704739B1154A4432126866
:100B50000243134B44331A6006E0114A44321268D0
:100B600082430F4B44331A60704739B10C4A10323C
:100B7000126802430A4B10331A6006E0084A10322A
:100B800012688243064B10331A607047E1B1044A81
:100B9000143212680243024B14331A6019E0000049
:100BA00000380240FFFFF6FE1030002400004742EC
:100BB000800E47420024F40000127A001400002046
:100BC000FFFCFF0F5C0147425B4A126882435A4BAD
:100BD0001A60704739B1584A121D12680243564BC9
:100BE0001B1D1A6006E0544A121D12688243524BC4
:100BF0001B1D1A60704739B14F4A0C32126802430C
:100C00004D4B0C331A6006E04B4A0C32126882439B
:100C1000494B0C331A60704739B1474A1032126899
:100C20000243454B10331A6006E0434A1032126803
:100C30008243414B10331A60704739B13E4A3C320F
:100C4000126802433C4B3C331A6006E03A4A3C329D
:100C500012688243384B3C331A60704739B1364AC8
:100C6000403212680243344B40331A6006E0324A85
:100C7000403212688243304B40331A60704739B1BA
:100C80002D4A4432126802432B4B44331A6006E06B
:100C9000294A443212688243274B44331A60704712
:100CA00039B1254A4C3212680243234B4C331A6047
:100CB00006E0214A4C32126882431F4B4C331A60C3
:100CC000704739B11C4A5032126802431A4B5033F4
:100CD0001A6006E0184A503212688243164B5033AD
:100CE0001A60704739B1144AD21F12780243124B6E
:100CF000DB1F1A7006E0104AD21F127882430E4B97
:100D0000DB1F1A7070470C486030006840F080703C
:100D1000094960310860704701460020064A083AD8
:100D200012680A400AB1012000E000207047024921
:100D3000891F0870704700001438024010B504463F
:100D4000F748844208D101211020FFF765FF0021F8
:100D50001020FFF761FF3EE0F248844209D10121F3
:100D60004804FFF748FF00214FF40030FFF743FF2E
:100D700031E0ED48844209D101218804FFF73BFFAF
:100D800000214FF48020FFF736FF24E0E74884423B
:100D900009D10121C804FFF72EFF00214FF40020E4
:100DA000FFF729FF17E0E248844209D10121080535
:100DB000FFF721FF00214FF48010FFF71CFF0AE02E
:100DC000DC48844207D101212020FFF725FF0021C4
:100DD0002020FFF721FF10BD2DE9FF4705460E46F5
:100DE0000024A14600BFA046B08900B100BF2C8AF4
:100DF00024F44054F08804432C82AC8941F20C6006
:100E00008443B08831890843718908430443AC8125
:100E1000AC8A24F44074B0890443AC826846FFF77E
:100E2000BAFDBF48854202D0C248854202D1DDF8F2
:100E30000C9001E0DDF80890A88900F4004040B172
:100E400009EBC90000EB091031684900B0FBF1F76C
:100E500007E009EBC90000EB091031688900B0FB1D
:100E6000F1F76420B7FBF0F004012009642101FBD5
:100E70001078A88900F4004040B1322000EBC8008F
:100E8000B0FBF1F000F00700044308E0322000EB73
:100E900008106421B0FBF1F000F00F0004432C8136
:100EA000BDE8FF874FF41651016000218180C180A9
:100EB00001810C21418100218181704710B50246DA
:100EC0000020108A20F470600B884C8823438C88A3
:100ED0002343CC8823431843108210BD0021018096
:100EE00041808180C180704721B1828942F40052E3
:100EF000828104E082894DF6FF731A408281704737
:100F0000028B02F47F420283028B0A430283704702
:100F100021B1828942F40042828103E08289C2F3D6
:100F20000E028281704721B1828A42F4006282827D
:100F300004E0828A4FF2FF731A4082827047C1F345
:100F400008028280704701468888C0F30800704715
:100F5000028A4FF6F0731A400282028A0A43028222
:100F6000704721B1828942F00202828104E08289C5
:100F70004FF6FD731A408281704782894FF2FF73EA
:100F80001A40828182890A4382817047028A4FF621
:100F9000DF731A400282028A0A430282704721B13B
:100FA000028A42F48042028204E0028A4BF6FF7316
:100FB0001A4002827047818941F0010181817047A6
:100FC00021B1828A42F00802828204E0828A4FF6CE
:100FD000F7731A4082827047028BD2B20283028B6F
:100FE00042EA01220283704721B1828A42F0200244
:100FF000828204E0828A4FF6DF731A408282704751
:1010000021B1828A42F01002828204E0828A4FF685
:10101000EF731A4082827047828A4FF6FB731A4040
:101020008282828A0A438282704721B1828A42F098
:101030000202828204E0828A4FF6FD731A408282A5
:1010400070471AB1838A0B43838202E0838A8B4301
:1010500083827047F0B50346002400260025002057
:1010600040F66A17B94200D100BF1846C1F34214D6
:1010700001F01F06012707FA06F5012C01D10C30FB
:1010800004E0022C01D1103000E014301AB10768DE
:101090002F43076002E00768AF430760F0BD0246D8
:1010A0000020B1F5007F00D100BF13880B400BB1C9
:1010B000012000E00020704701F40072B2F5007FCB
:1010C00000D100BFCA430280704770B502460024B9
:1010D00000230025002040F66A16B14200D100BF6F
:1010E000C1F3421501F01F03012606FA03F3012D97
:1010F00002D19689334006E0022D02D1168A334090
:1011000001E0968A33400C12012606FA04F4168890
:10111000344013B10CB1012000E0002070BD00008C
:10112000001001400044004000480040004C0040D6
:10113000005000400014014010B50022002340F68A
:101140006A14A14200D100BF0A1201249440A3B244
:10115000DC43048010BD000000F0B8FA70E03948AC
:1011600090F80801012826D107223749374800F0B6
:10117000FDFB072234492331354800F0F7FB0722F5
:1011800031494631334800F0F1FB0023072219466C
:101190002E4800F08CFB0023072211462C4800F05B
:1011A00086FB002307220E212A4800F080FB002046
:1011B000244981F80801284890F80801072820D11F
:1011C000264890F8080107281BD1254890F8080107
:1011D000072816D115222349234800F07EFC01235D
:1011E00007220021194800F062FB01230722114663
:1011F000174800F05CFB012307220E21154800F080
:1012000056FB154890F808010E2819D1134890F89C
:1012100008010E2814D1124890F808010E280FD1A9
:10122000152210491048543000F057FC00200A499C
:1012300081F80801094981F80801094981F8080184
:101240008DE70000240000202D0100200048004010
:10125000004C004000500040F0020020BC0500207F
:1012600088080020540B0020140C0020704700BF99
:10127000FEE700BFFEE700BFFEE700BFFEE77047E6
:101280007047704770B505460C462088042805DA7B
:101290002188481C2080A01C455470BD208804284B
:1012A0001AD1A078FF280FD1E078FF280CD120793F
:1012B000FD2809D1607938B92188481C2080A01CFC
:1012C0004554A4F8025106E0E078A0702179E1705D
:1012D000617921716571E0E7208806280FDC21889B
:1012E000481C2080A01C45542088072806D1E1799D
:1012F000207A41EA0020C01DA4F80201CDE7208831
:1013000006284DDD2088B4F80211884248DA218889
:10131000481C2080A01C45542088B4F80211884243
:101320003DD1B4F80201801E82B2A11C002000F061
:1013300057FAA4F80601B4F80201801EA11C0A5C49
:10134000B4F80201401E085C42EA0020B4F806111D
:1013500088421CD1607A832809D1692204F10E01E8
:1013600004F2091000F074FB012084F80801607A8F
:1013700055280CD104F10B0000F025FAA1793B4A65
:1013800042F8210094F80801401C84F8080100206C
:1013900020804FF48061A01C00F0D1FB00E07CE7CE
:1013A00000BF7AE710B540F225513148FFF78DFEB6
:1013B00080B12F48FFF7C7FDC4B240F225512C4839
:1013C000FFF7BAFE20212A48FFF776FE294920467A
:1013D000FFF758FF10BD10B540F225512648FFF722
:1013E00074FE80B12448FFF7AEFDC4B240F225512F
:1013F0002148FFF7A1FE20211F48FFF75DFE1F498E
:101400002046FFF73FFF10BD10B540F225511C48A4
:10141000FFF75BFE80B11A48FFF795FDC4B240F2BA
:1014200025511748FFF788FE20211548FFF744FE95
:1014300014492046FFF726FF10BD10B540F2255194
:101440001148FFF742FE80B10F48FFF77CFDC4B2A0
:1014500040F225510C48FFF76FFE20210A48FFF7A4
:101460002BFE0A492046FFF70DFF10BD540B00204C
:10147000001001402400002000480040F00200203D
:10148000004C0040BC0500200050004088080020AF
:1014900000B587B001210F20FFF712FB01211020BA
:1014A000FFF752FB01214FF4E010FFF73CFB002057
:1014B0008DF81A0001208DF81B0002208DF819000C
:1014C0008DF818000002059005A95248FFF7B2F800
:1014D0004FF48060059005A94F48FFF7ABF84FF433
:1014E0008060059005A94D48FFF7A4F84FF480509F
:1014F000059005A94948FFF79DF84FF480600590D5
:1015000005A94448FFF796F84FF40060059005A937
:101510004148FFF78FF84FF40060059005A93F4858
:10152000FFF788F80420059005A93D48FFF782F8E9
:1015300007220A213748FFF708F907220921354811
:10154000FFF703F907220A213348FFF7FEF80722C5
:101550000B213148FFF7F9F808220A212F48FFF73D
:10156000F4F808220B212D48FFF7EFF808220C2190
:101570002A48FFF7EAF8082202212948FFF7E5F890
:101580004FF4E13001900020ADF80800ADF80A00FA
:10159000ADF80C00ADF810000C20ADF80E0001A95C
:1015A0002048FFF719FC01A91F48FFF715FC01A906
:1015B0001E48FFF711FC01A91D48FFF70DFC012291
:1015C00040F225511748FFF745FD01211548FFF767
:1015D0008BFC012240F225511348FFF73BFD01210E
:1015E0001148FFF781FC012240F225510F48FFF717
:1015F00031FD01210D48FFF777FC012240F2255112
:101600000B48FFF727FD01210948FFF76DFC07B0E4
:1016100000BD00000000024000040240000802403B
:10162000000C02400010014000480040004C004007
:101630000050004030B50146481EB0F1807F01D314
:10164000012030BD481E4FF0E022506150170F229C
:10165000002804DB13071C0E724B1C5406E0130712
:101660001D0E714B00F00F04241F1D5500BF0020FC
:101670004FF0E0229061072010610020E1E708B5FB
:101680004FF4A060FEF7F8FE25208DF80000012041
:101690008DF8010000208DF8020001208DF8030074
:1016A0006846FEF7EEFE27208DF800006846FEF73C
:1016B000E8FE34208DF800006846FEF7E2FE352093
:1016C0008DF800006846FEF7DCFE08BD10B5FFF798
:1016D000DFFEFFF7D4FF10BD70B504465348006825
:1016E0004FF47A71B0FBF1F63046FFF7A3FF4FF0ED
:1016F000E020006920F002004FF0E02108610025A1
:1017000008E000BF4FF0E020006900F480300028BE
:10171000F8D06D1CA542F4D34FF0E020006920F012
:1017200001004FF0E021086170BD70B504463F48EC
:1017300000683F49B0FBF1F63046FFF77BFF4FF002
:10174000E020006920F002004FF0E0210861002550
:1017500008E000BF4FF0E020006900F4803000286E
:10176000F8D06D1CA542F4D34FF0E020006920F0C2
:1017700001004FF0E021086170BD2DE9F0412DED31
:10178000028BB0EE408A9FED2B0A28EE000ABDEED8
:10179000C00A10EE104A4FF47A7094FBF0F694FBF6
:1017A000F0F100FB1147002504E04FF47A70FFF7D9
:1017B00093FF6D1CB542F8DB3846FFF78DFFBDEC9B
:1017C000028BBDE8F0810146CA7812068B7842EAA6
:1017D00003424B7842EA03220B7842EA0300704747
:1017E0002DE9F041ADF5007D04460E4617464FF455
:1017F00000721149684600F070F900250BE0705D39
:1018000080EA242000F0FF083DF8180080EA042058
:1018100084B2681C85B2BD42F1DB20460DF5007D27
:10182000BDE8F08100E400E018ED00E000000020D9
:1018300040420F0000007A44541C00082DE9F0419A
:1018400006460C46FF20804908704870FD208870CD
:101850000020C87008460671082048710020887171
:101860005520C871002008724C72200A8872200C22
:10187000C872200E08730D220020FFF7B1FF074643
:1018800071494F73380A887300250CE06E48415D3A
:101890006E48FFF754FB00BF80216C48FFF7FFFB49
:1018A0000028F9D06D1C0F2DF0DBBDE8F0812DE98B
:1018B000F0478246884615461F46FF206249087059
:1018C0004870FD2088700020C870FE20087105EB6C
:1018D000850000F1070981F805904FEA1920887109
:1018E0002FB98220C8718420087200204872012F0D
:1018F00006D182205449C8718020087200204872A5
:101900000420514988720020C872002408E008EBC6
:101910000400C1B204F10C004B4A1154601C84B2A3
:10192000AC42F4DB05F10C0247490020FFF758FFF9
:10193000064605F10C00444A1654310A401C115465
:1019400000240DE04048015D5046FFF7F8FA00BF63
:1019500080215046FFF7A3FB0028F9D0601C84B219
:1019600005F10E00A042EDDCBDE8F0872DE9F0475F
:10197000804689461446FF20334908704870FD2090
:1019800088700020C870FE20087104EB8400C61D1A
:101990004E71300A88718320C8717420087200204B
:1019A0004872042088720020C87204EB8402494601
:1019B00025480C3000F04CF804EB840000F10C02D8
:1019C00021490020FFF70CFF074604EB84000C3090
:1019D0001D4A1754390A04EB84000D3011540025B8
:1019E0000DE01948415D4046FFF7A9FA00BF80218C
:1019F0004046FFF754FB0028F9D0681C85B204EB81
:101A000084000E30A842ECDCBDE8F08770B50446D7
:101A10000D46E1B20D48FFF792FA00BF80210B4856
:101A2000FFF73DFB0028F9D0204670BD10B50446F5
:101A300000BF20210548FFF732FB0028F9D00348FA
:101A4000FFF781FA10BD0000140E002000100140C5
:101A5000032A40F2308010F0030C00F0158011F8DA
:101A6000013BBCF1020F624498BF11F801CB00F8B2
:101A7000013B38BF11F8013BA2F1040298BF00F806
:101A800001CB38BF00F8013B11F0030300F02580C3
:101A9000083AC0F0088051F8043B083A51F804CBEA
:101AA000A0E80810F5E7121D5CBF51F8043B40F8B0
:101AB000043BAFF30080D20724BF11F8013B11F8BB
:101AC00001CB48BF11F8012B24BF00F8013B00F8FF
:101AD00001CB48BF00F8012B704710B5203AC0F089
:101AE0000B80B1E81850203AA0E81850B1E818501F
:101AF000A0E81850BFF4F5AF5FEA027C24BFB1E85C
:101B00001850A0E8185044BF18C918C0BDE81040CC
:101B10005FEA827C24BF51F8043B40F8043B08BFD5
:101B20007047D20728BF31F8023B48BF11F8012B9C
:101B300028BF20F8023B48BF00F8012B70474FF048
:101B400000020429C0F0128010F0030C00F01E8087
:101B5000CCF1040CBCF1020F18BF00F8012BA8BF98
:101B600020F8022BA1EB0C0100F010B85FEAC17C59
:101B700024BF00F8012B00F8012B48BF00F8012B0F
:101B800070477047704770474FF0000200B513462A
:101B900094469646203922BFA0E80C50A0E80C508D
:101BA000B1F12001BFF4F7AF090728BFA0E80C503E
:101BB00048BF0CC05DF804EB890028BF40F8042B37
:101BC00008BF704748BF20F8022B11F0804F18BFA4
:101BD00000F8012B7047754600F02CF8AE46050062
:101BE0006946534620F00700854618B020B5FEF739
:101BF00031FCBDE820404FF000064FF000074FF0E9
:101C000000084FF0000B21F00701AC46ACE8C0091A
:101C1000ACE8C009ACE8C009ACE8C0098D46704723
:101C200010B50446AFF300802046BDE81040FEF733
:101C3000F4BA000000487047140F00200149182032
:101C4000ABBEFEE72600020070474FF04070E1EEA9
:101C5000100A7047000005800F800A001B801E00DC
:101C600014001180338036003C00398028002D801C
:101C700027802200638066006C00698078007D8088
:101C800077807200500055805F805A004B804E0074
:101C900044004180C380C600CC00C980D800DD80EC
:101CA000D780D200F000F580FF80FA00EB80EE00D4
:101CB000E400E180A000A580AF80AA00BB80BE0048
:101CC000B400B180938096009C00998088008D803C
:101CD00087808200838186018C01898198019D81A2
:101CE00097819201B001B581BF81BA01AB81AE018C
:101CF000A401A181E001E581EF81EA01FB81FE0100
:101D0000F401F181D381D601DC01D981C801CD81F3
:101D1000C781C201400145814F814A015B815E015B
:101D200054015181738176017C01798168016D8153
:101D300067816201238126012C01298138013D81BF
:101D400037813201100115811F811A010B810E01AB
:101D500004010181038306030C03098318031D8317
:101D600017831203300335833F833A032B832E03FB
:101D700024032183600365836F836A037B837E036F
:101D800074037183538356035C03598348034D8363
:101D900047834203C003C583CF83CA03DB83DE03CB
:101DA000D403D183F383F603FC03F983E803ED83C3
:101DB000E783E203A383A603AC03A983B803BD832F
:101DC000B783B203900395839F839A038B838E031B
:101DD00084038183800285828F828A029B829E0295
:101DE00094029182B382B602BC02B982A802AD828B
:101DF000A782A202E382E602EC02E982F802FD82F7
:101E0000F782F202D002D582DF82DA02CB82CE02E2
:101E1000C402C182438246024C02498258025D825A
:101E200057825202700275827F827A026B826E0242
:101E300064026182200225822F822A023B823E02B6
:101E400034023182138216021C02198208020D82AA
:101E500007820202741E0008000000202400000017
:101E6000C4010008981E000824000020541500003A
:101E7000E0010008007A030A0000000000000000F2
:101E80000102030406070809000000000102030420
:081E9000010203040607080922
:040000050800018965
:00000001FF
